,txs,rpctxs,_id,hash,height,bits,confirmations,createdAt,diff,merkle,nonce,prev,size,ver
0,18c1bcd79f8032c30adb4fb9b074b77b2650051cf19968f6881c46c7d67b203d,"{'txid': '18c1bcd79f8032c30adb4fb9b074b77b2650051cf19968f6881c46c7d67b203d', 'version': 1, 'size': 66, 'locktime': 0, 'vin': [{'coinbase': '0383b6180102', 'sequence': 4294967295}], 'vout': [{'value': 0, 'n': 0, 'scriptPubKey': {'asm': '', 'hex': '', 'type': 'nonstandard'}}], 'hex': '01000000010000000000000000000000000000000000000000000000000000000000000000ffffffff060383b6180102ffffffff0100000000000000000000000000'}",60664cb1bce010eed4e64965,e816dfe569c28878d48c25501001345f6df55541409a75b5145b333fc59c4647,1619587,1b099863,3,2021-04-01T22:42:15.000Z,6829.934338896531,9b48686a86a20c2be3836f4fa3da6bb6d0d185221d2d6e533c8f0e5950c486f1,0,GENESIS,3476,7
1,2dba7c249ad01420ecdb72b485c04f2c209f95702e5de50f59693c870a036c71,"{'txid': '2dba7c249ad01420ecdb72b485c04f2c209f95702e5de50f59693c870a036c71', 'version': 1, 'size': 211, 'locktime': 0, 'vin': [{'txid': 'ec663829a4658d4438c251ea999757de056706fc8ccd04f6bb410cd463fe06ae', 'vout': 1, 'scriptSig': {'asm': '3045022100e1223162d218455ea3bb5de11ad9b7f8f480fc994e2870d02cc2e6762bb6acbe02205473f4574d691b3ca8da31b72ebbe692b868248991b308c590eda6cb4bd98a1101', 'hex': '483045022100e1223162d218455ea3bb5de11ad9b7f8f480fc994e2870d02cc2e6762bb6acbe02205473f4574d691b3ca8da31b72ebbe692b868248991b308c590eda6cb4bd98a1101'}, 'sequence': 4294967295}], 'vout': [{'value': 0, 'n': 0, 'scriptPubKey': {'asm': '', 'hex': '', 'type': 'nonstandard'}}, {'value': 2271.93147783, 'n': 1, 'scriptPubKey': {'asm': '03b57932ae4c47afe2173c8437c51045aa5bbef4026c36f83a543bda7ccb93b980 OP_CHECKSIG', 'hex': '2103b57932ae4c47afe2173c8437c51045aa5bbef4026c36f83a543bda7ccb93b980ac', 'reqSigs': 1, 'type': 'pubkey', 'addresses': ['Wb5UeyUzmRozsu4vq2jYkgvayn64K1QQRn']}}, {'value': 2.85, 'n': 2, 'scriptPubKey': {'asm': 'OP_DUP OP_HASH160 d18493d22d5afa9f8768abb27591e7b2bc92da7d OP_EQUALVERIFY OP_CHECKSIG', 'hex': '76a914d18493d22d5afa9f8768abb27591e7b2bc92da7d88ac', 'reqSigs': 1, 'type': 'pubkeyhash', 'addresses': ['WhmrvfJqf1R7zPtxWjBFGfEwng2d7SXVcf']}}], 'hex': '0100000001ae06fe63d40c41bbf604cd8cfc066705de579799ea51c238448d65a4293866ec0100000049483045022100e1223162d218455ea3bb5de11ad9b7f8f480fc994e2870d02cc2e6762bb6acbe02205473f4574d691b3ca8da31b72ebbe692b868248991b308c590eda6cb4bd98a1101ffffffff030000000000000000008751c4e534000000232103b57932ae4c47afe2173c8437c51045aa5bbef4026c36f83a543bda7ccb93b980ac40c1fc10000000001976a914d18493d22d5afa9f8768abb27591e7b2bc92da7d88ac00000000'}",60664cb1bce010eed4e64965,e816dfe569c28878d48c25501001345f6df55541409a75b5145b333fc59c4647,1619587,1b099863,3,2021-04-01T22:42:15.000Z,6829.934338896531,9b48686a86a20c2be3836f4fa3da6bb6d0d185221d2d6e533c8f0e5950c486f1,0,GENESIS,3476,7
2,83783f86ddb692f9c5b013fbde89ae5821084c1b8a43041c2311a57455b44884,"{'txid': '83783f86ddb692f9c5b013fbde89ae5821084c1b8a43041c2311a57455b44884', 'version': 1, 'size': 664, 'locktime': 0, 'vin': [{'txid': 'd98a49c1f53107a0c2b97b5de5cd517d46099e7aa9b2a634e666f73eb14d6ec6', 'vout': 1, 'scriptSig': {'asm': '3045022100af5ab77164f2428718c6a7efbe267315433acede33651a6645617e7566c1b4f702204d7259fdfd25ea6a89d32483bd231474d6613603b99b44680744f60f2553ee9901 0386bc21f6774204686c09faeab207c0837e10d8d38fe13792a209c3273bcfbed9', 'hex': '483045022100af5ab77164f2428718c6a7efbe267315433acede33651a6645617e7566c1b4f702204d7259fdfd25ea6a89d32483bd231474d6613603b99b44680744f60f2553ee9901210386bc21f6774204686c09faeab207c0837e10d8d38fe13792a209c3273bcfbed9'}, 'sequence': 4294967295}, {'txid': 'dfa41cc0e8281fb21b523aa0fddecae2c8a33d0e303b8247dd3a3d96870acf26', 'vout': 2, 'scriptSig': {'asm': '304402206ded6a7426ee714f78a747a8591aec2a5e43fdc0948462e42f0b96ad60a7f381022051960284be0de7ad62fdb79381ae116b6ae8baef092a893b8d2b6d46ea5ccc9e01 0386bc21f6774204686c09faeab207c0837e10d8d38fe13792a209c3273bcfbed9', 'hex': '47304402206ded6a7426ee714f78a747a8591aec2a5e43fdc0948462e42f0b96ad60a7f381022051960284be0de7ad62fdb79381ae116b6ae8baef092a893b8d2b6d46ea5ccc9e01210386bc21f6774204686c09faeab207c0837e10d8d38fe13792a209c3273bcfbed9'}, 'sequence': 4294967295}], 'vout': [{'value': 1000, 'n': 0, 'scriptPubKey': {'asm': 'OP_RETURN 4201033d46010002', 'hex': '6a084201033d46010002', 'type': 'nulldata'}}, {'value': 100, 'n': 1, 'scriptPubKey': {'asm': 'OP_DUP OP_HASH160 cbe9d982067e7d222b344daa118afe43199ca073 OP_EQUALVERIFY OP_CHECKSIG', 'hex': '76a914cbe9d982067e7d222b344daa118afe43199ca07388ac', 'reqSigs': 1, 'type': 'pubkeyhash', 'addresses': ['WhGEC2XX3UUemoFA19o5oAUeeGsCyRBqYh']}}, {'value': 100, 'n': 2, 'scriptPubKey': {'asm': 'OP_DUP OP_HASH160 cbe9d982067e7d222b344daa118afe43199ca073 OP_EQUALVERIFY OP_CHECKSIG', 'hex': '76a914cbe9d982067e7d222b344daa118afe43199ca07388ac', 'reqSigs': 1, 'type': 'pubkeyhash', 'addresses': ['WhGEC2XX3UUemoFA19o5oAUeeGsCyRBqYh']}}, {'value': 100, 'n': 3, 'scriptPubKey': {'asm': 'OP_DUP OP_HASH160 cbe9d982067e7d222b344daa118afe43199ca073 OP_EQUALVERIFY OP_CHECKSIG', 'hex': '76a914cbe9d982067e7d222b344daa118afe43199ca07388ac', 'reqSigs': 1, 'type': 'pubkeyhash', 'addresses': ['WhGEC2XX3UUemoFA19o5oAUeeGsCyRBqYh']}}, {'value': 100, 'n': 4, 'scriptPubKey': {'asm': 'OP_DUP OP_HASH160 cbe9d982067e7d222b344daa118afe43199ca073 OP_EQUALVERIFY OP_CHECKSIG', 'hex': '76a914cbe9d982067e7d222b344daa118afe43199ca07388ac', 'reqSigs': 1, 'type': 'pubkeyhash', 'addresses': ['WhGEC2XX3UUemoFA19o5oAUeeGsCyRBqYh']}}, {'value': 100, 'n': 5, 'scriptPubKey': {'asm': 'OP_DUP OP_HASH160 cbe9d982067e7d222b344daa118afe43199ca073 OP_EQUALVERIFY OP_CHECKSIG', 'hex': '76a914cbe9d982067e7d222b344daa118afe43199ca07388ac', 'reqSigs': 1, 'type': 'pubkeyhash', 'addresses': ['WhGEC2XX3UUemoFA19o5oAUeeGsCyRBqYh']}}, {'value': 100, 'n': 6, 'scriptPubKey': {'asm': 'OP_DUP OP_HASH160 cbe9d982067e7d222b344daa118afe43199ca073 OP_EQUALVERIFY OP_CHECKSIG', 'hex': '76a914cbe9d982067e7d222b344daa118afe43199ca07388ac', 'reqSigs': 1, 'type': 'pubkeyhash', 'addresses': ['WhGEC2XX3UUemoFA19o5oAUeeGsCyRBqYh']}}, {'value': 100, 'n': 7, 'scriptPubKey': {'asm': 'OP_DUP OP_HASH160 cbe9d982067e7d222b344daa118afe43199ca073 OP_EQUALVERIFY OP_CHECKSIG', 'hex': '76a914cbe9d982067e7d222b344daa118afe43199ca07388ac', 'reqSigs': 1, 'type': 'pubkeyhash', 'addresses': ['WhGEC2XX3UUemoFA19o5oAUeeGsCyRBqYh']}}, {'value': 100, 'n': 8, 'scriptPubKey': {'asm': 'OP_DUP OP_HASH160 cbe9d982067e7d222b344daa118afe43199ca073 OP_EQUALVERIFY OP_CHECKSIG', 'hex': '76a914cbe9d982067e7d222b344daa118afe43199ca07388ac', 'reqSigs': 1, 'type': 'pubkeyhash', 'addresses': ['WhGEC2XX3UUemoFA19o5oAUeeGsCyRBqYh']}}, {'value': 100, 'n': 9, 'scriptPubKey': {'asm': 'OP_DUP OP_HASH160 cbe9d982067e7d222b344daa118afe43199ca073 OP_EQUALVERIFY OP_CHECKSIG', 'hex': '76a914cbe9d982067e7d222b344daa118afe43199ca07388ac', 'reqSigs': 1, 'type': 'pubkeyhash', 'addresses': ['WhGEC2XX3UUemoFA19o5oAUeeGsCyRBqYh']}}, {'value': 71.653206, 'n': 10, 'scriptPubKey': {'asm': 'OP_DUP OP_HASH160 cbe9d982067e7d222b344daa118afe43199ca073 OP_EQUALVERIFY OP_CHECKSIG', 'hex': '76a914cbe9d982067e7d222b344daa118afe43199ca07388ac', 'reqSigs': 1, 'type': 'pubkeyhash', 'addresses': ['WhGEC2XX3UUemoFA19o5oAUeeGsCyRBqYh']}}], 'hex': '0100000002c66e4db13ef766e634a6b2a97a9e09467d51cde55d7bb9c2a00731f5c1498ad9010000006b483045022100af5ab77164f2428718c6a7efbe267315433acede33651a6645617e7566c1b4f702204d7259fdfd25ea6a89d32483bd231474d6613603b99b44680744f60f2553ee9901210386bc21f6774204686c09faeab207c0837e10d8d38fe13792a209c3273bcfbed9ffffffff26cf0a87963d3add47823b300e3da3c8e2cadefda03a521bb21f28e8c01ca4df020000006a47304402206ded6a7426ee714f78a747a8591aec2a5e43fdc0948462e42f0b96ad60a7f381022051960284be0de7ad62fdb79381ae116b6ae8baef092a893b8d2b6d46ea5ccc9e01210386bc21f6774204686c09faeab207c0837e10d8d38fe13792a209c3273bcfbed9ffffffff0b00e87648170000000a6a084201033d4601000200e40b54020000001976a914cbe9d982067e7d222b344daa118afe43199ca07388ac00e40b54020000001976a914cbe9d982067e7d222b344daa118afe43199ca07388ac00e40b54020000001976a914cbe9d982067e7d222b344daa118afe43199ca07388ac00e40b54020000001976a914cbe9d982067e7d222b344daa118afe43199ca07388ac00e40b54020000001976a914cbe9d982067e7d222b344daa118afe43199ca07388ac00e40b54020000001976a914cbe9d982067e7d222b344daa118afe43199ca07388ac00e40b54020000001976a914cbe9d982067e7d222b344daa118afe43199ca07388ac00e40b54020000001976a914cbe9d982067e7d222b344daa118afe43199ca07388ac00e40b54020000001976a914cbe9d982067e7d222b344daa118afe43199ca07388ac981d16ab010000001976a914cbe9d982067e7d222b344daa118afe43199ca07388ac00000000'}",60664cb1bce010eed4e64965,e816dfe569c28878d48c25501001345f6df55541409a75b5145b333fc59c4647,1619587,1b099863,3,2021-04-01T22:42:15.000Z,6829.934338896531,9b48686a86a20c2be3836f4fa3da6bb6d0d185221d2d6e533c8f0e5950c486f1,0,GENESIS,3476,7
3,dedb6ef21326faab517c9f9004b0aa4a4a08bd1f5f48b0d2ad97df4e2967924e,"{'txid': 'dedb6ef21326faab517c9f9004b0aa4a4a08bd1f5f48b0d2ad97df4e2967924e', 'version': 1, 'size': 211, 'locktime': 0, 'vin': [{'txid': '495d55086b0a28f2b3ad44d36edccc6f8370be2c556f37e02900170cb14cc11f', 'vout': 7, 'scriptSig': {'asm': '3045022100f1419935d1f2e9a815a7f88418ff5eb3de974e03b6291769cd43585dfc1f741f02202355786489149245eaebaf56c729e4a3907839af34556609ee4178bbea191dd101 037a153243ada882c99b6198bd377b294e6f5e772971445d3b68f7657d7257461f', 'hex': '483045022100f1419935d1f2e9a815a7f88418ff5eb3de974e03b6291769cd43585dfc1f741f02202355786489149245eaebaf56c729e4a3907839af34556609ee4178bbea191dd10121037a153243ada882c99b6198bd377b294e6f5e772971445d3b68f7657d7257461f'}, 'sequence': 4294967295}], 'vout': [{'value': 25, 'n': 0, 'scriptPubKey': {'asm': 'OP_RETURN 4201030b46010002', 'hex': '6a084201030b46010002', 'type': 'nulldata'}}, {'value': 45.209, 'n': 1, 'scriptPubKey': {'asm': 'OP_DUP OP_HASH160 be2bb62ba3de61ac2cb13f1b8c7136b84ad3c5ab OP_EQUALVERIFY OP_CHECKSIG', 'hex': '76a914be2bb62ba3de61ac2cb13f1b8c7136b84ad3c5ab88ac', 'reqSigs': 1, 'type': 'pubkeyhash', 'addresses': ['Wg1ZdWb1ehmCwMjyDKhANQ2MyajFcrAz6h']}}], 'hex': '01000000011fc14cb10c170029e0376f552cbe70836fccdc6ed344adb3f2280a6b08555d49070000006b483045022100f1419935d1f2e9a815a7f88418ff5eb3de974e03b6291769cd43585dfc1f741f02202355786489149245eaebaf56c729e4a3907839af34556609ee4178bbea191dd10121037a153243ada882c99b6198bd377b294e6f5e772971445d3b68f7657d7257461fffffffff0200f90295000000000a6a084201030b46010002a075770d010000001976a914be2bb62ba3de61ac2cb13f1b8c7136b84ad3c5ab88ac00000000'}",60664cb1bce010eed4e64965,e816dfe569c28878d48c25501001345f6df55541409a75b5145b333fc59c4647,1619587,1b099863,3,2021-04-01T22:42:15.000Z,6829.934338896531,9b48686a86a20c2be3836f4fa3da6bb6d0d185221d2d6e533c8f0e5950c486f1,0,GENESIS,3476,7
4,0d6257dfc09bc1cba5e77d65eeafc6d499332555d61cbb98c8012643b6c87557,"{'txid': '0d6257dfc09bc1cba5e77d65eeafc6d499332555d61cbb98c8012643b6c87557', 'version': 1, 'size': 511, 'locktime': 0, 'vin': [{'txid': 'c0054e0886ee30041056798ba9cb5ca4618d05f862c34df71472539a5eb7530d', 'vout': 1, 'scriptSig': {'asm': '304402207d2e55d99e76c9001126af9984671cce55fa0374f1e1f9b32048ac2efd397b47022006d1e3937001e4a337f68aa9a1efdd0f656605139266016ed603ce3ae39a55cd01 036a9c2e0eb82bb8158811e9cdac8d8919e4063311774e32be0145a3a7720d87d7', 'hex': '47304402207d2e55d99e76c9001126af9984671cce55fa0374f1e1f9b32048ac2efd397b47022006d1e3937001e4a337f68aa9a1efdd0f656605139266016ed603ce3ae39a55cd0121036a9c2e0eb82bb8158811e9cdac8d8919e4063311774e32be0145a3a7720d87d7'}, 'sequence': 4294967295}, {'txid': 'a1f0e3b4bb207a2d35a876a7eee792659ebe1d7f9a956b3f134dfaeafd214135', 'vout': 1, 'scriptSig': {'asm': '30450221008354955161c413f3aa05baffc50ef49e0b0f8abb5bb1f2f0c12d3f2fe8d41f48022040e0a58f9e019dc4e69fe6873d87ff6265c756b5305331f4441216b6a222bcf401 036a9c2e0eb82bb8158811e9cdac8d8919e4063311774e32be0145a3a7720d87d7', 'hex': '4830450221008354955161c413f3aa05baffc50ef49e0b0f8abb5bb1f2f0c12d3f2fe8d41f48022040e0a58f9e019dc4e69fe6873d87ff6265c756b5305331f4441216b6a222bcf40121036a9c2e0eb82bb8158811e9cdac8d8919e4063311774e32be0145a3a7720d87d7'}, 'sequence': 4294967295}, {'txid': '93a7121cf6ffe120f601cee5bbeea947aefe04f84866783765bef4de31b2a3e8', 'vout': 1, 'scriptSig': {'asm': '304402203699d59c50264aa72b15929415ab4a7d4667da10335e199304dd914f1b48620d022053b4478a77da50ecaa8d1a1595df6e1abc267f9442a8c8a7931182e13183201001 036a9c2e0eb82bb8158811e9cdac8d8919e4063311774e32be0145a3a7720d87d7', 'hex': '47304402203699d59c50264aa72b15929415ab4a7d4667da10335e199304dd914f1b48620d022053b4478a77da50ecaa8d1a1595df6e1abc267f9442a8c8a7931182e1318320100121036a9c2e0eb82bb8158811e9cdac8d8919e4063311774e32be0145a3a7720d87d7'}, 'sequence': 4294967295}], 'vout': [{'value': 2500, 'n': 0, 'scriptPubKey': {'asm': 'OP_RETURN 42010c020a460100040946010006', 'hex': '6a0e42010c020a460100040946010006', 'type': 'nulldata'}}, {'value': 2062.3103908, 'n': 1, 'scriptPubKey': {'asm': 'OP_DUP OP_HASH160 f0b440c11839897bc127d40b1a5ac5b9890387dc OP_EQUALVERIFY OP_CHECKSIG', 'hex': '76a914f0b440c11839897bc127d40b1a5ac5b9890387dc88ac', 'reqSigs': 1, 'type': 'pubkeyhash', 'addresses': ['WkckzAJo3o4bLMT4Lti5oBaabTAphEMyZy']}}], 'hex': '01000000030d53b75e9a537214f74dc362f8058d61a45ccba98b7956100430ee86084e05c0010000006a47304402207d2e55d99e76c9001126af9984671cce55fa0374f1e1f9b32048ac2efd397b47022006d1e3937001e4a337f68aa9a1efdd0f656605139266016ed603ce3ae39a55cd0121036a9c2e0eb82bb8158811e9cdac8d8919e4063311774e32be0145a3a7720d87d7ffffffff354121fdeafa4d133f6b959a7f1dbe9e6592e7eea776a8352d7a20bbb4e3f0a1010000006b4830450221008354955161c413f3aa05baffc50ef49e0b0f8abb5bb1f2f0c12d3f2fe8d41f48022040e0a58f9e019dc4e69fe6873d87ff6265c756b5305331f4441216b6a222bcf40121036a9c2e0eb82bb8158811e9cdac8d8919e4063311774e32be0145a3a7720d87d7ffffffffe8a3b231def4be6537786648f804feae47a9eebbe5ce01f620e1fff61c12a793010000006a47304402203699d59c50264aa72b15929415ab4a7d4667da10335e199304dd914f1b48620d022053b4478a77da50ecaa8d1a1595df6e1abc267f9442a8c8a7931182e1318320100121036a9c2e0eb82bb8158811e9cdac8d8919e4063311774e32be0145a3a7720d87d7ffffffff02004429353a000000106a0e42010c020a46010004094601000668ec5304300000001976a914f0b440c11839897bc127d40b1a5ac5b9890387dc88ac00000000'}",60664cb1bce010eed4e64965,e816dfe569c28878d48c25501001345f6df55541409a75b5145b333fc59c4647,1619587,1b099863,3,2021-04-01T22:42:15.000Z,6829.934338896531,9b48686a86a20c2be3836f4fa3da6bb6d0d185221d2d6e533c8f0e5950c486f1,0,GENESIS,3476,7
5,664e8039e1accff2e47fcac598aff3405b97a1ca707a28d4515a39e6cba6d494,"{'txid': '664e8039e1accff2e47fcac598aff3405b97a1ca707a28d4515a39e6cba6d494', 'version': 1, 'size': 210, 'locktime': 0, 'vin': [{'txid': '0a0924155b1149bc415cd107e531a378937cb2c21b29be257578a083e1f103a1', 'vout': 6, 'scriptSig': {'asm': '304402206d55f097f6c5afabca03b9a3bc92aa7b3220272f43e89235443b1bff058b5bff02200967a2dc648a63280ad3db7d6de7bb0822884f4927a2f2f72f94f5c117e29a8d01 037a153243ada882c99b6198bd377b294e6f5e772971445d3b68f7657d7257461f', 'hex': '47304402206d55f097f6c5afabca03b9a3bc92aa7b3220272f43e89235443b1bff058b5bff02200967a2dc648a63280ad3db7d6de7bb0822884f4927a2f2f72f94f5c117e29a8d0121037a153243ada882c99b6198bd377b294e6f5e772971445d3b68f7657d7257461f'}, 'sequence': 4294967295}], 'vout': [{'value': 25, 'n': 0, 'scriptPubKey': {'asm': 'OP_RETURN 4201030e46010007', 'hex': '6a084201030e46010007', 'type': 'nulldata'}}, {'value': 23.499, 'n': 1, 'scriptPubKey': {'asm': 'OP_DUP OP_HASH160 be2bb62ba3de61ac2cb13f1b8c7136b84ad3c5ab OP_EQUALVERIFY OP_CHECKSIG', 'hex': '76a914be2bb62ba3de61ac2cb13f1b8c7136b84ad3c5ab88ac', 'reqSigs': 1, 'type': 'pubkeyhash', 'addresses': ['Wg1ZdWb1ehmCwMjyDKhANQ2MyajFcrAz6h']}}], 'hex': '0100000001a103f1e183a0787525be291bc2b27c9378a331e507d15c41bc49115b1524090a060000006a47304402206d55f097f6c5afabca03b9a3bc92aa7b3220272f43e89235443b1bff058b5bff02200967a2dc648a63280ad3db7d6de7bb0822884f4927a2f2f72f94f5c117e29a8d0121037a153243ada882c99b6198bd377b294e6f5e772971445d3b68f7657d7257461fffffffff0200f90295000000000a6a084201030e46010007e0a0108c000000001976a914be2bb62ba3de61ac2cb13f1b8c7136b84ad3c5ab88ac00000000'}",60664cb1bce010eed4e64965,e816dfe569c28878d48c25501001345f6df55541409a75b5145b333fc59c4647,1619587,1b099863,3,2021-04-01T22:42:15.000Z,6829.934338896531,9b48686a86a20c2be3836f4fa3da6bb6d0d185221d2d6e533c8f0e5950c486f1,0,GENESIS,3476,7
6,844051b6a5fcf2844c40be74ea773e26d441af17e1f3e728778f2689cf538d97,"{'txid': '844051b6a5fcf2844c40be74ea773e26d441af17e1f3e728778f2689cf538d97', 'version': 1, 'size': 219, 'locktime': 0, 'vin': [{'txid': 'c23fb25ef9bfcb67fcd93ab6c0affe36588d526910be49411b5bb3ab1e3c8e09', 'vout': 0, 'scriptSig': {'asm': '30440220144d4cfdeeebf2c55f3a5027f93ab3db53084f39b4bbea1a9bd876f6a3074817022004f5fe834467e20e5d100ae49896adea34a7a4a7cd0813c37544057325235d8f01 024f2c027ed6a61bc78b0c311f7284c7e46febf191c2510a70ec00bd428586d788', 'hex': '4730440220144d4cfdeeebf2c55f3a5027f93ab3db53084f39b4bbea1a9bd876f6a3074817022004f5fe834467e20e5d100ae49896adea34a7a4a7cd0813c37544057325235d8f0121024f2c027ed6a61bc78b0c311f7284c7e46febf191c2510a70ec00bd428586d788'}, 'sequence': 4294967295}], 'vout': [{'value': 99.115, 'n': 0, 'scriptPubKey': {'asm': 'OP_DUP OP_HASH160 9f0242d5b780cbcba16794a27f9d90908531347b OP_EQUALVERIFY OP_CHECKSIG', 'hex': '76a9149f0242d5b780cbcba16794a27f9d90908531347b88ac', 'reqSigs': 1, 'type': 'pubkeyhash', 'addresses': ['WdAo2Xk8r1MVx7ZmxARpJJkgzaFeumDcCS']}}, {'value': 0, 'n': 1, 'scriptPubKey': {'asm': 'OP_RETURN 42010a0a4601005a55204e0000204e0000', 'hex': '6a1142010a0a4601005a55204e0000204e0000', 'type': 'nulldata'}}], 'hex': '0100000001098e3c1eabb35b1b4149be1069528d5836feafc0b63ad9fc67cbbff95eb23fc2000000006a4730440220144d4cfdeeebf2c55f3a5027f93ab3db53084f39b4bbea1a9bd876f6a3074817022004f5fe834467e20e5d100ae49896adea34a7a4a7cd0813c37544057325235d8f0121024f2c027ed6a61bc78b0c311f7284c7e46febf191c2510a70ec00bd428586d788ffffffff02e07cc54e020000001976a9149f0242d5b780cbcba16794a27f9d90908531347b88ac0000000000000000136a1142010a0a4601005a55204e0000204e000000000000'}",60664cb1bce010eed4e64965,e816dfe569c28878d48c25501001345f6df55541409a75b5145b333fc59c4647,1619587,1b099863,3,2021-04-01T22:42:15.000Z,6829.934338896531,9b48686a86a20c2be3836f4fa3da6bb6d0d185221d2d6e533c8f0e5950c486f1,0,GENESIS,3476,7
7,b01ac9b54949e72247172a5d4bc2a03176d08ce923693606bf6521a9c03abffa,"{'txid': 'b01ac9b54949e72247172a5d4bc2a03176d08ce923693606bf6521a9c03abffa', 'version': 1, 'size': 219, 'locktime': 0, 'vin': [{'txid': '7e24cab9faf055609695207886da0cd35d7849235bc4e2500ca7f31ff806084c', 'vout': 0, 'scriptSig': {'asm': '304402204ac299fb07e82e0e2cf3390626687d1d4dbabd10a6d8eed02eb650cb75d190910220625fb137ada4d826be05303feefd1fd1683c67c2f6bc68037e271abec0e1529701 024f2c027ed6a61bc78b0c311f7284c7e46febf191c2510a70ec00bd428586d788', 'hex': '47304402204ac299fb07e82e0e2cf3390626687d1d4dbabd10a6d8eed02eb650cb75d190910220625fb137ada4d826be05303feefd1fd1683c67c2f6bc68037e271abec0e152970121024f2c027ed6a61bc78b0c311f7284c7e46febf191c2510a70ec00bd428586d788'}, 'sequence': 4294967295}], 'vout': [{'value': 98.05, 'n': 0, 'scriptPubKey': {'asm': 'OP_DUP OP_HASH160 9f0242d5b780cbcba16794a27f9d90908531347b OP_EQUALVERIFY OP_CHECKSIG', 'hex': '76a9149f0242d5b780cbcba16794a27f9d90908531347b88ac', 'reqSigs': 1, 'type': 'pubkeyhash', 'addresses': ['WdAo2Xk8r1MVx7ZmxARpJJkgzaFeumDcCS']}}, {'value': 0, 'n': 1, 'scriptPubKey': {'asm': 'OP_RETURN 42010ad2450100fa001c570000b4460000', 'hex': '6a1142010ad2450100fa001c570000b4460000', 'type': 'nulldata'}}], 'hex': '01000000014c0806f81ff3a70c50e2c45b2349785dd30cda86782095966055f0fab9ca247e000000006a47304402204ac299fb07e82e0e2cf3390626687d1d4dbabd10a6d8eed02eb650cb75d190910220625fb137ada4d826be05303feefd1fd1683c67c2f6bc68037e271abec0e152970121024f2c027ed6a61bc78b0c311f7284c7e46febf191c2510a70ec00bd428586d788ffffffff02406d6c48020000001976a9149f0242d5b780cbcba16794a27f9d90908531347b88ac0000000000000000136a1142010ad2450100fa001c570000b446000000000000'}",60664cb1bce010eed4e64965,e816dfe569c28878d48c25501001345f6df55541409a75b5145b333fc59c4647,1619587,1b099863,3,2021-04-01T22:42:15.000Z,6829.934338896531,9b48686a86a20c2be3836f4fa3da6bb6d0d185221d2d6e533c8f0e5950c486f1,0,GENESIS,3476,7
8,7589bc5440f2343934758e8262d5f05a808925096bafa8844c002f676d17b77a,"{'txid': '7589bc5440f2343934758e8262d5f05a808925096bafa8844c002f676d17b77a', 'version': 1, 'size': 219, 'locktime': 0, 'vin': [{'txid': 'ed0c922968474bd3774b2f2f798a6dc839810ddf8d0bca1183d14f47860e181f', 'vout': 0, 'scriptSig': {'asm': '30440220252f8a4f2e8d6d70b26213144049619ab422cb07c0be26cfc979824f06b17eec02204138978e1c8f889e600e99d71dd762e6491845d185420bb1e785b1d80dd7909e01 024f2c027ed6a61bc78b0c311f7284c7e46febf191c2510a70ec00bd428586d788', 'hex': '4730440220252f8a4f2e8d6d70b26213144049619ab422cb07c0be26cfc979824f06b17eec02204138978e1c8f889e600e99d71dd762e6491845d185420bb1e785b1d80dd7909e0121024f2c027ed6a61bc78b0c311f7284c7e46febf191c2510a70ec00bd428586d788'}, 'sequence': 4294967295}], 'vout': [{'value': 18.549, 'n': 0, 'scriptPubKey': {'asm': 'OP_DUP OP_HASH160 9f0242d5b780cbcba16794a27f9d90908531347b OP_EQUALVERIFY OP_CHECKSIG', 'hex': '76a9149f0242d5b780cbcba16794a27f9d90908531347b88ac', 'reqSigs': 1, 'type': 'pubkeyhash', 'addresses': ['WdAo2Xk8r1MVx7ZmxARpJJkgzaFeumDcCS']}}, {'value': 0, 'n': 1, 'scriptPubKey': {'asm': 'OP_RETURN 4201090a4601006400844e0000844e0000', 'hex': '6a114201090a4601006400844e0000844e0000', 'type': 'nulldata'}}], 'hex': '01000000011f180e86474fd18311ca0b8ddf0d8139c86d8a792f2f4b77d34b476829920ced000000006a4730440220252f8a4f2e8d6d70b26213144049619ab422cb07c0be26cfc979824f06b17eec02204138978e1c8f889e600e99d71dd762e6491845d185420bb1e785b1d80dd7909e0121024f2c027ed6a61bc78b0c311f7284c7e46febf191c2510a70ec00bd428586d788ffffffff0220878f6e000000001976a9149f0242d5b780cbcba16794a27f9d90908531347b88ac0000000000000000136a114201090a4601006400844e0000844e000000000000'}",60664cb1bce010eed4e64965,e816dfe569c28878d48c25501001345f6df55541409a75b5145b333fc59c4647,1619587,1b099863,3,2021-04-01T22:42:15.000Z,6829.934338896531,9b48686a86a20c2be3836f4fa3da6bb6d0d185221d2d6e533c8f0e5950c486f1,0,GENESIS,3476,7
9,26847bfb55500e4cd9cc7bce3f7f5cb3275affd50344788a714b1a5d0535076a,"{'txid': '26847bfb55500e4cd9cc7bce3f7f5cb3275affd50344788a714b1a5d0535076a', 'version': 1, 'size': 214, 'locktime': 0, 'vin': [{'txid': '4908e9d428cc851fa180a504c74620b7edfa564fe153b3eb302e59d8c8c1da87', 'vout': 0, 'scriptSig': {'asm': '304402202adbc0d18bab43e6fa6585ce88c36b801fc31743f3693b556a2dbe66444c001602207a9889625f0c857f7c8ab679e50d22727d13ba2dd03b76ba45b495b057103d4301 024f2c027ed6a61bc78b0c311f7284c7e46febf191c2510a70ec00bd428586d788', 'hex': '47304402202adbc0d18bab43e6fa6585ce88c36b801fc31743f3693b556a2dbe66444c001602207a9889625f0c857f7c8ab679e50d22727d13ba2dd03b76ba45b495b057103d430121024f2c027ed6a61bc78b0c311f7284c7e46febf191c2510a70ec00bd428586d788'}, 'sequence': 4294967295}], 'vout': [{'value': 18.111, 'n': 0, 'scriptPubKey': {'asm': 'OP_DUP OP_HASH160 9f0242d5b780cbcba16794a27f9d90908531347b OP_EQUALVERIFY OP_CHECKSIG', 'hex': '76a9149f0242d5b780cbcba16794a27f9d90908531347b88ac', 'reqSigs': 1, 'type': 'pubkeyhash', 'addresses': ['WdAo2Xk8r1MVx7ZmxARpJJkgzaFeumDcCS']}}, {'value': 0, 'n': 1, 'scriptPubKey': {'asm': 'OP_RETURN 420104f7450100015802f401', 'hex': '6a0c420104f7450100015802f401', 'type': 'nulldata'}}], 'hex': '010000000187dac1c8d8592e30ebb353e14f56faedb72046c704a580a11f85cc28d4e90849000000006a47304402202adbc0d18bab43e6fa6585ce88c36b801fc31743f3693b556a2dbe66444c001602207a9889625f0c857f7c8ab679e50d22727d13ba2dd03b76ba45b495b057103d430121024f2c027ed6a61bc78b0c311f7284c7e46febf191c2510a70ec00bd428586d788ffffffff026031f36b000000001976a9149f0242d5b780cbcba16794a27f9d90908531347b88ac00000000000000000e6a0c420104f7450100015802f40100000000'}",60664cb1bce010eed4e64965,e816dfe569c28878d48c25501001345f6df55541409a75b5145b333fc59c4647,1619587,1b099863,3,2021-04-01T22:42:15.000Z,6829.934338896531,9b48686a86a20c2be3836f4fa3da6bb6d0d185221d2d6e533c8f0e5950c486f1,0,GENESIS,3476,7
10,604c081dd2f430689dd32007e48d53ae3e6c1d56091f3919d8585d34b4a80604,"{'txid': '604c081dd2f430689dd32007e48d53ae3e6c1d56091f3919d8585d34b4a80604', 'version': 1, 'size': 222, 'locktime': 0, 'vin': [{'txid': '5c3dcda695c059dd61e5e062107d72b2bc14c83dfed709fda1f83dcaf826e62b', 'vout': 0, 'scriptSig': {'asm': '3045022100a90efa69d3687f0fbfee7a46c508f533f469eb95da2db93b9cce4108f65894150220438e52a80c9dfc476d83f467551de3b0322494b251646943b926c1eec2f8a0bd01 024f2c027ed6a61bc78b0c311f7284c7e46febf191c2510a70ec00bd428586d788', 'hex': '483045022100a90efa69d3687f0fbfee7a46c508f533f469eb95da2db93b9cce4108f65894150220438e52a80c9dfc476d83f467551de3b0322494b251646943b926c1eec2f8a0bd0121024f2c027ed6a61bc78b0c311f7284c7e46febf191c2510a70ec00bd428586d788'}, 'sequence': 4294967295}], 'vout': [{'value': 19.249, 'n': 0, 'scriptPubKey': {'asm': 'OP_DUP OP_HASH160 9f0242d5b780cbcba16794a27f9d90908531347b OP_EQUALVERIFY OP_CHECKSIG', 'hex': '76a9149f0242d5b780cbcba16794a27f9d90908531347b88ac', 'reqSigs': 1, 'type': 'pubkeyhash', 'addresses': ['WdAo2Xk8r1MVx7ZmxARpJJkgzaFeumDcCS']}}, {'value': 0, 'n': 1, 'scriptPubKey': {'asm': 'OP_RETURN 4201050a460100b04f00002c4c000000000000', 'hex': '6a134201050a460100b04f00002c4c000000000000', 'type': 'nulldata'}}], 'hex': '01000000012be626f8ca3df8a1fd09d7fe3dc814bcb2727d1062e0e561dd59c095a6cd3d5c000000006b483045022100a90efa69d3687f0fbfee7a46c508f533f469eb95da2db93b9cce4108f65894150220438e52a80c9dfc476d83f467551de3b0322494b251646943b926c1eec2f8a0bd0121024f2c027ed6a61bc78b0c311f7284c7e46febf191c2510a70ec00bd428586d788ffffffff02a0a4bb72000000001976a9149f0242d5b780cbcba16794a27f9d90908531347b88ac0000000000000000156a134201050a460100b04f00002c4c00000000000000000000'}",60664cb1bce010eed4e64965,e816dfe569c28878d48c25501001345f6df55541409a75b5145b333fc59c4647,1619587,1b099863,3,2021-04-01T22:42:15.000Z,6829.934338896531,9b48686a86a20c2be3836f4fa3da6bb6d0d185221d2d6e533c8f0e5950c486f1,0,GENESIS,3476,7
11,96e98014a9f79bf11cdcfdf784485ab6d33a8ba9e388c023a1718b205eba5521,"{'txid': '96e98014a9f79bf11cdcfdf784485ab6d33a8ba9e388c023a1718b205eba5521', 'version': 1, 'size': 357, 'locktime': 0, 'vin': [{'txid': '06c0909838965017b81d1aac0a6ee16257cdf076e4a46ae59d551324d8d8aa3c', 'vout': 1, 'scriptSig': {'asm': '30440220684cfc6546d309c19b1f590ec997511160a8ebf447fa79017446b0440ab616900220295961a57ffc10d0bdcf0ffd912cdd040ac0351a4201ec1c65bcaa769490c43001 037a153243ada882c99b6198bd377b294e6f5e772971445d3b68f7657d7257461f', 'hex': '4730440220684cfc6546d309c19b1f590ec997511160a8ebf447fa79017446b0440ab616900220295961a57ffc10d0bdcf0ffd912cdd040ac0351a4201ec1c65bcaa769490c4300121037a153243ada882c99b6198bd377b294e6f5e772971445d3b68f7657d7257461f'}, 'sequence': 4294967295}, {'txid': '1d8b99e3c6b1e3afc4e359e58028c6d0a694ac5f66aa578fc1d2379d49c41cc3', 'vout': 1, 'scriptSig': {'asm': '304402202fd3aa87875009dba9d4a3ad81f7ae62a9d11d93b9f0e4d89a6d3dfc971a876102204abc034fc82d356106fa073ca1fc4f5e03441fd6c8984bd02aa113c839a60c0701 037a153243ada882c99b6198bd377b294e6f5e772971445d3b68f7657d7257461f', 'hex': '47304402202fd3aa87875009dba9d4a3ad81f7ae62a9d11d93b9f0e4d89a6d3dfc971a876102204abc034fc82d356106fa073ca1fc4f5e03441fd6c8984bd02aa113c839a60c070121037a153243ada882c99b6198bd377b294e6f5e772971445d3b68f7657d7257461f'}, 'sequence': 4294967295}], 'vout': [{'value': 25, 'n': 0, 'scriptPubKey': {'asm': 'OP_RETURN 4201030f46010005', 'hex': '6a084201030f46010005', 'type': 'nulldata'}}, {'value': 26.232, 'n': 1, 'scriptPubKey': {'asm': 'OP_DUP OP_HASH160 be2bb62ba3de61ac2cb13f1b8c7136b84ad3c5ab OP_EQUALVERIFY OP_CHECKSIG', 'hex': '76a914be2bb62ba3de61ac2cb13f1b8c7136b84ad3c5ab88ac', 'reqSigs': 1, 'type': 'pubkeyhash', 'addresses': ['Wg1ZdWb1ehmCwMjyDKhANQ2MyajFcrAz6h']}}], 'hex': '01000000023caad8d82413559de56aa4e476f0cd5762e16e0aac1a1db8175096389890c006010000006a4730440220684cfc6546d309c19b1f590ec997511160a8ebf447fa79017446b0440ab616900220295961a57ffc10d0bdcf0ffd912cdd040ac0351a4201ec1c65bcaa769490c4300121037a153243ada882c99b6198bd377b294e6f5e772971445d3b68f7657d7257461fffffffffc31cc4499d37d2c18f57aa665fac94a6d0c62880e559e3c4afe3b1c6e3998b1d010000006a47304402202fd3aa87875009dba9d4a3ad81f7ae62a9d11d93b9f0e4d89a6d3dfc971a876102204abc034fc82d356106fa073ca1fc4f5e03441fd6c8984bd02aa113c839a60c070121037a153243ada882c99b6198bd377b294e6f5e772971445d3b68f7657d7257461fffffffff0200f90295000000000a6a084201030f4601000500db5a9c000000001976a914be2bb62ba3de61ac2cb13f1b8c7136b84ad3c5ab88ac00000000'}",60664cb1bce010eed4e64965,e816dfe569c28878d48c25501001345f6df55541409a75b5145b333fc59c4647,1619587,1b099863,3,2021-04-01T22:42:15.000Z,6829.934338896531,9b48686a86a20c2be3836f4fa3da6bb6d0d185221d2d6e533c8f0e5950c486f1,0,GENESIS,3476,7
